{
  "contractName": "Donate",
  "abi": [
    {
      "constant": true,
      "inputs": [
        {
          "name": "",
          "type": "uint256"
        }
      ],
      "name": "donors",
      "outputs": [
        {
          "name": "",
          "type": "address"
        }
      ],
      "payable": false,
      "stateMutability": "view",
      "type": "function"
    },
    {
      "constant": false,
      "inputs": [
        {
          "name": "projectId",
          "type": "uint256"
        }
      ],
      "name": "donate",
      "outputs": [
        {
          "name": "",
          "type": "uint256"
        }
      ],
      "payable": false,
      "stateMutability": "nonpayable",
      "type": "function"
    },
    {
      "constant": true,
      "inputs": [],
      "name": "getDonors",
      "outputs": [
        {
          "name": "",
          "type": "address[16]"
        }
      ],
      "payable": false,
      "stateMutability": "view",
      "type": "function"
    }
  ],
  "bytecode": "0x6060604052341561000f57600080fd5b6102dd8061001e6000396000f300606060405260043610610057576000357c0100000000000000000000000000000000000000000000000000000000900463ffffffff1680634abfa1631461005c57806396f300d4146100bf578063f14faf6f14610110575b600080fd5b341561006757600080fd5b61007d6004808035906020019091905050610147565b604051808273ffffffffffffffffffffffffffffffffffffffff1673ffffffffffffffffffffffffffffffffffffffff16815260200191505060405180910390f35b34156100ca57600080fd5b6100d261017c565b6040518082601060200280838360005b838110156100fd5780820151818401526020810190506100e2565b5050505090500191505060405180910390f35b341561011b57600080fd5b61013160048080359060200190919050506101fd565b6040518082815260200191505060405180910390f35b60008160108110151561015657fe5b016000915054906101000a900473ffffffffffffffffffffffffffffffffffffffff1681565b610184610272565b60006010806020026040519081016040528092919082601080156101f3576020028201915b8160009054906101000a900473ffffffffffffffffffffffffffffffffffffffff1673ffffffffffffffffffffffffffffffffffffffff16815260200190600101908083116101a9575b5050505050905090565b60008082101580156102105750600f8211155b151561021b57600080fd5b3360008360108110151561022b57fe5b0160006101000a81548173ffffffffffffffffffffffffffffffffffffffff021916908373ffffffffffffffffffffffffffffffffffffffff160217905550819050919050565b610200604051908101604052806010905b600073ffffffffffffffffffffffffffffffffffffffff1681526020019060019003908161028357905050905600a165627a7a72305820f8fdacf6909194ca5a0d58986369e26b1d9033052d49a3f539e278d9427352990029",
  "source": "pragma solidity 0.4.19;\r\n\r\n//This is a contract!\r\ncontract Donate {\r\n    address[16] public donors;\r\n\r\n    // Donate to project\r\n    function donate(uint projectId) public returns (uint) {\r\n        require(projectId >= 0 && projectId <= 15);\r\n\r\n        donors[projectId] = msg.sender;\r\n\r\n        return projectId;\r\n        }\r\n\r\n\r\n        // Retrieving the donors\r\n        function getDonors() public view returns (address[16]) {\r\n            return donors;\r\n        }\r\n}",
  "sourcePath": "C:\\Users\\ruben\\EthONG\\App\\contracts\\Donate.sol",
  "compiler": {
    "name": "solc",
    "version": "0.4.19+commit.c4cbbb05.Emscripten.clang"
  },
  "schemaVersion": "2.0.0",
  "updatedAt": "2018-03-03T14:27:45.689Z"
}