{
  "contractName": "Donation",
  "abi": [
    {
      "constant": true,
      "inputs": [
        {
          "name": "",
          "type": "uint256"
        }
      ],
      "name": "donors",
      "outputs": [
        {
          "name": "",
          "type": "address"
        }
      ],
      "payable": false,
      "stateMutability": "view",
      "type": "function"
    },
    {
      "constant": false,
      "inputs": [
        {
          "name": "beneficiary",
          "type": "address"
        },
        {
          "name": "goal",
          "type": "uint256"
        }
      ],
      "name": "newProject",
      "outputs": [
        {
          "name": "projectId",
          "type": "uint256"
        }
      ],
      "payable": false,
      "stateMutability": "nonpayable",
      "type": "function"
    },
    {
      "constant": false,
      "inputs": [
        {
          "name": "projectId",
          "type": "uint256"
        }
      ],
      "name": "donate",
      "outputs": [],
      "payable": true,
      "stateMutability": "payable",
      "type": "function"
    },
    {
      "constant": true,
      "inputs": [],
      "name": "getDonors",
      "outputs": [
        {
          "components": [
            {
              "name": "addr",
              "type": "address"
            },
            {
              "name": "amount",
              "type": "uint256"
            }
          ],
          "name": "",
          "type": "tuple[]"
        }
      ],
      "payable": false,
      "stateMutability": "view",
      "type": "function"
    }
  ],
  "bytecode": "0x6060604052341561000f57600080fd5b61064f8061001e6000396000f300606060405260043610610062576000357c0100000000000000000000000000000000000000000000000000000000900463ffffffff1680634abfa1631461006757806366c66930146100ca57806396f300d414610120578063f14faf6f14610185575b600080fd5b341561007257600080fd5b610088600480803590602001909190505061019d565b604051808273ffffffffffffffffffffffffffffffffffffffff1673ffffffffffffffffffffffffffffffffffffffff16815260200191505060405180910390f35b34156100d557600080fd5b61010a600480803573ffffffffffffffffffffffffffffffffffffffff169060200190919080359060200190919050506101d2565b6040518082815260200191505060405180910390f35b341561012b57600080fd5b6101336102a2565b60405180806020018281038252838181518152602001915080516000925b818410156101745782849060200190602002015181526020019260010192610151565b925050509250505060405180910390f35b61019b60048080359060200190919050506104bc565b005b6000816010811015156101ac57fe5b016000915054906101000a900473ffffffffffffffffffffffffffffffffffffffff1681565b6000601060008154809291906001019190505590506080604051908101604052808473ffffffffffffffffffffffffffffffffffffffff1681526020018381526020016000815260200160008152506011600083815260200190815260200160002060008201518160000160006101000a81548173ffffffffffffffffffffffffffffffffffffffff021916908373ffffffffffffffffffffffffffffffffffffffff16021790555060208201518160010155604082015181600201556060820151816003015590505092915050565b6102aa61058f565b60008060008091505b6010548260ff1610156103fd57600090505b601160008360ff168152602001908152602001600020600201548160ff1610156103f0578280548060010182816102fc91906105a3565b916000526020600020906002020160006040805190810160405280601160008860ff16815260200190815260200160002060040160008760ff16815260200190815260200160002060000160009054906101000a900473ffffffffffffffffffffffffffffffffffffffff1673ffffffffffffffffffffffffffffffffffffffff1681526020018660ff16815250909190915060008201518160000160006101000a81548173ffffffffffffffffffffffffffffffffffffffff021916908373ffffffffffffffffffffffffffffffffffffffff1602179055506020820151816001015550505080806001019150506102c5565b81806001019250506102b3565b82805480602002602001604051908101604052809291908181526020016000905b828210156104b057838290600052602060002090600202016040805190810160405290816000820160009054906101000a900473ffffffffffffffffffffffffffffffffffffffff1673ffffffffffffffffffffffffffffffffffffffff1673ffffffffffffffffffffffffffffffffffffffff1681526020016001820154815250508152602001906001019061041e565b50505050935050505090565b600060116000838152602001908152602001600020905060408051908101604052803373ffffffffffffffffffffffffffffffffffffffff1681526020013481525081600401600083600201600081548092919060010191905055815260200190815260200160002060008201518160000160006101000a81548173ffffffffffffffffffffffffffffffffffffffff021916908373ffffffffffffffffffffffffffffffffffffffff160217905550602082015181600101559050503481600301600082825401925050819055505050565b602060405190810160405280600081525090565b8154818355818115116105d0576002028160020283600052602060002091820191016105cf91906105d5565b5b505050565b61062091905b8082111561061c57600080820160006101000a81549073ffffffffffffffffffffffffffffffffffffffff02191690556001820160009055506002016105db565b5090565b905600a165627a7a72305820fb0b85e4266b313279f8705f23a6b13a1fb43a6cbeacdeecc60e664d2b5ffada0029",
  "source": "pragma solidity 0.4.19;\r\n\r\n//This is a contract!\r\ncontract Donation {\r\n    address[16] public donors;\r\n// Define un nuevo tipo con dos campos.\r\n    struct Doner {\r\n        address addr;\r\n        uint amount;\r\n    }\r\n\r\n    struct Project {\r\n        address ong;\r\n        uint fundingGoal;\r\n        uint numDoners;\r\n        uint amount;\r\n        mapping (uint => Doner) doners;\r\n    }\r\n    \r\n    uint numProjects;\r\n    mapping (uint => Project) projects;\r\n\r\n    function newProject(address beneficiary, uint goal) returns (uint projectId) {\r\n        projectId = numProjects++; // campaignID es variable de retorno\r\n        // Crea un nuevo struct y lo guarda en almacenamiento. Dejamos fuera el tipo mapping.\r\n        projects[projectId] = Project(beneficiary, goal, 0, 0);\r\n    }\r\n\r\n    function donate(uint projectId) payable {\r\n        Project c = projects[projectId];\r\n        // Crea un nuevo struct de memoria temporal, inicializado con los valores dados\r\n        // y lo copia al almacenamiento.\r\n        // Nótese que también se puede usar Funder(msg.sender, msg.value) para inicializarlo\r\n        c.doners[c.numDoners++] = Doner({addr: msg.sender, amount: msg.value});\r\n        c.amount += msg.value;\r\n    }\r\n    \r\n    // Retrieving the adopters\r\n   function getDonors() public view returns (Doner[]) {\r\n       Doner[] result;\r\n       for(var j=0; j<numProjects;j++){\r\n           for(var i=0; i<projects[j].numDoners;i++){\r\n                result.push(Doner(projects[j].doners[i].addr, j));\r\n           }           \r\n       }      \r\n\r\n       return result;\r\n    }\r\n\r\n\r\n    // Donate to project\r\n    // function donate(uint projectId) public returns (uint) {\r\n    //     require(projectId >= 0 && projectId <= 15);\r\n\r\n    //     donors[projectId] = msg.sender;\r\n\r\n    //     return projectId;\r\n    //     }\r\n\r\n\r\n    //     // Retrieving the donors\r\n        //  function getDonors() public view returns (uint[]) {\r\n        //      return projects;\r\n        //  }\r\n}",
  "sourcePath": "C:\\Users\\ruben\\EthONG\\App\\contracts\\Donation.sol",
  "compiler": {
    "name": "solc",
    "version": "0.4.19+commit.c4cbbb05.Emscripten.clang"
  },
  "schemaVersion": "2.0.0",
  "updatedAt": "2018-03-03T16:39:06.677Z"
}