{
  "contractName": "Donation",
  "abi": [
    {
      "constant": false,
      "inputs": [
        {
          "name": "projectId",
          "type": "uint256"
        }
      ],
      "name": "donate",
      "outputs": [
        {
          "name": "",
          "type": "uint256"
        }
      ],
      "payable": false,
      "stateMutability": "nonpayable",
      "type": "function"
    },
    {
      "constant": true,
      "inputs": [],
      "name": "getDonors",
      "outputs": [
        {
          "components": [
            {
              "name": "addr",
              "type": "address"
            },
            {
              "name": "projectId",
              "type": "uint256"
            }
          ],
          "name": "",
          "type": "tuple[]"
        }
      ],
      "payable": false,
      "stateMutability": "view",
      "type": "function"
    }
  ],
  "bytecode": "0x6060604052341561000f57600080fd5b6102be8061001e6000396000f30060606040526004361061004c576000357c0100000000000000000000000000000000000000000000000000000000900463ffffffff16806396f300d414610051578063f14faf6f146100b6575b600080fd5b341561005c57600080fd5b6100646100ed565b60405180806020018281038252838181518152602001915080516000925b818410156100a55782849060200190602002015181526020019260010192610082565b925050509250505060405180910390f35b34156100c157600080fd5b6100d760048080359060200190919050506101b2565b6040518082815260200191505060405180910390f35b6100f561027e565b6001805480602002602001604051908101604052809291908181526020016000905b828210156101a957838290600052602060002090600202016040805190810160405290816000820160009054906101000a900473ffffffffffffffffffffffffffffffffffffffff1673ffffffffffffffffffffffffffffffffffffffff1673ffffffffffffffffffffffffffffffffffffffff16815260200160018201548152505081526020019060010190610117565b50505050905090565b600080821115156101c257600080fd5b6000808154809291906001019190505560008190555060408051908101604052803373ffffffffffffffffffffffffffffffffffffffff16815260200183815250600160005481548110151561021457fe5b906000526020600020906002020160008201518160000160006101000a81548173ffffffffffffffffffffffffffffffffffffffff021916908373ffffffffffffffffffffffffffffffffffffffff16021790555060208201518160010155905050819050919050565b6020604051908101604052806000815250905600a165627a7a72305820ebf4a8d5c18e16fa262101f0a4f105051ebac0a3ef3790e24b7ee97ba7c6dad20029",
  "source": "pragma solidity 0.4.19;\r\n\r\n//This is a contract!\r\ncontract Donation {\r\n    \r\n    uint numDonations;\r\n    struct Donate {\r\n        address addr;\r\n        uint projectId;\r\n    }\r\n    \r\n    Donate[] donates;\r\n    //mapping (uint => Donate) donates;\r\n    \r\n    // Adopting A pet\r\n    function donate(uint projectId) public returns (uint) {\r\n        require(projectId > 0);\r\n        numDonations = numDonations++;\r\n\r\n        donates[numDonations] = Donate(msg.sender, projectId);\r\n        \r\n        return projectId;\r\n    }\r\n\r\n\r\n    // Retrieving the adopters\r\n    function getDonors() public view returns (Donate[]) {\r\n       return donates;\r\n    }\r\n}",
  "sourcePath": "C:\\Projects\\EthONG\\app\\contracts\\Donation.sol",
  "compiler": {
    "name": "solc",
    "version": "0.4.19+commit.c4cbbb05.Emscripten.clang"
  },
  "schemaVersion": "2.0.0",
  "updatedAt": "2018-03-03T15:04:25.438Z"
}